{
  "contractName": "Addition",
  "abi": [
    {
      "constant": true,
      "inputs": [],
      "name": "sum",
      "outputs": [
        {
          "name": "",
          "type": "int256"
        }
      ],
      "payable": false,
      "stateMutability": "view",
      "type": "function"
    },
    {
      "constant": false,
      "inputs": [
        {
          "name": "x",
          "type": "int256"
        },
        {
          "name": "y",
          "type": "int256"
        }
      ],
      "name": "add",
      "outputs": [],
      "payable": false,
      "stateMutability": "nonpayable",
      "type": "function"
    }
  ],
  "bytecode": "0x60806040526000805534801561001457600080fd5b5060f0806100236000396000f3fe6080604052600436106043576000357c010000000000000000000000000000000000000000000000000000000090048063853255cc146048578063a5f3c23b146070575b600080fd5b348015605357600080fd5b50605a60b1565b6040518082815260200191505060405180910390f35b348015607b57600080fd5b5060af60048036036040811015609057600080fd5b81019080803590602001909291908035906020019092919050505060b7565b005b60005481565b808201600081905550505056fea165627a7a7230582011115ec69e89c9720b91d35120014e1471598bba3acc8770e4814f82b6b84c810029",
  "source": "pragma solidity >=0.4.21 <0.6.0;\n\ncontract Addition {\n  int public sum = 0;\n\nfunction add (int x, int y) public {\n    sum = x + y;\n  }\n}\n",
  "sourcePath": "/Users/lucahernandezacosta/PowerFolders/powerfolder/Uni-Sachen/Project_Master/mern-auth/contracts/Addition.sol",
  "compiler": {
    "name": "solc",
    "version": "0.5.1+commit.c8a2cb62.Emscripten.clang"
  },
  "schemaVersion": "3.0.9",
  "updatedAt": "2019-09-19T01:39:11.373Z",
  "devdoc": {
    "methods": {}
  },
  "userdoc": {
    "methods": {}
  }
}