{
  "contractName": "PaperReviewHistory",
  "abi": [
    {
      "constant": true,
      "inputs": [
        {
          "name": "",
          "type": "bytes32"
        }
      ],
      "name": "papers",
      "outputs": [
        {
          "name": "paperAuthorAddress",
          "type": "address"
        },
        {
          "name": "authorName",
          "type": "string"
        },
        {
          "name": "paperHash",
          "type": "bytes32"
        },
        {
          "name": "parentPaperHash",
          "type": "bytes32"
        }
      ],
      "payable": false,
      "stateMutability": "view",
      "type": "function"
    },
    {
      "constant": true,
      "inputs": [
        {
          "name": "",
          "type": "uint256"
        }
      ],
      "name": "testArray",
      "outputs": [
        {
          "name": "",
          "type": "string"
        }
      ],
      "payable": false,
      "stateMutability": "view",
      "type": "function"
    },
    {
      "constant": true,
      "inputs": [],
      "name": "testBytes",
      "outputs": [
        {
          "name": "",
          "type": "bytes32"
        }
      ],
      "payable": false,
      "stateMutability": "view",
      "type": "function"
    },
    {
      "constant": true,
      "inputs": [
        {
          "name": "",
          "type": "uint256"
        }
      ],
      "name": "paperHashesTotal",
      "outputs": [
        {
          "name": "",
          "type": "bytes32"
        }
      ],
      "payable": false,
      "stateMutability": "view",
      "type": "function"
    },
    {
      "constant": true,
      "inputs": [
        {
          "name": "",
          "type": "uint256"
        }
      ],
      "name": "paperHashesOriginal",
      "outputs": [
        {
          "name": "",
          "type": "bytes32"
        }
      ],
      "payable": false,
      "stateMutability": "view",
      "type": "function"
    },
    {
      "constant": true,
      "inputs": [
        {
          "name": "",
          "type": "uint256"
        }
      ],
      "name": "testStringArr",
      "outputs": [
        {
          "name": "",
          "type": "string"
        }
      ],
      "payable": false,
      "stateMutability": "view",
      "type": "function"
    },
    {
      "constant": true,
      "inputs": [],
      "name": "testString",
      "outputs": [
        {
          "name": "",
          "type": "string"
        }
      ],
      "payable": false,
      "stateMutability": "view",
      "type": "function"
    },
    {
      "inputs": [],
      "payable": false,
      "stateMutability": "nonpayable",
      "type": "constructor"
    },
    {
      "constant": true,
      "inputs": [
        {
          "name": "paperHash",
          "type": "bytes32"
        }
      ],
      "name": "getPaperReviewHistory",
      "outputs": [
        {
          "name": "",
          "type": "address"
        },
        {
          "name": "",
          "type": "string"
        },
        {
          "name": "",
          "type": "bytes32"
        },
        {
          "name": "",
          "type": "bytes32"
        },
        {
          "name": "",
          "type": "bytes32[]"
        },
        {
          "name": "",
          "type": "uint256[]"
        },
        {
          "name": "",
          "type": "address[]"
        },
        {
          "name": "",
          "type": "bytes32[]"
        },
        {
          "name": "",
          "type": "uint256[]"
        },
        {
          "name": "",
          "type": "int256[]"
        },
        {
          "name": "",
          "type": "int256[]"
        }
      ],
      "payable": false,
      "stateMutability": "view",
      "type": "function"
    },
    {
      "constant": true,
      "inputs": [
        {
          "name": "paperHash",
          "type": "bytes32"
        }
      ],
      "name": "getPaperStruct",
      "outputs": [
        {
          "components": [
            {
              "name": "paperAuthorAddress",
              "type": "address"
            },
            {
              "name": "authorName",
              "type": "string"
            },
            {
              "name": "paperHash",
              "type": "bytes32"
            },
            {
              "name": "parentPaperHash",
              "type": "bytes32"
            },
            {
              "name": "paperHashHistory",
              "type": "bytes32[]"
            },
            {
              "name": "paperTimestamps",
              "type": "uint256[]"
            },
            {
              "name": "reviewerAddresses",
              "type": "address[]"
            },
            {
              "name": "reviewHashes",
              "type": "bytes32[]"
            },
            {
              "name": "reviewerTimestamps",
              "type": "uint256[]"
            },
            {
              "name": "overallEvaluation",
              "type": "int256[]"
            },
            {
              "name": "reviewerConfidence",
              "type": "int256[]"
            }
          ],
          "name": "",
          "type": "tuple"
        }
      ],
      "payable": false,
      "stateMutability": "view",
      "type": "function"
    },
    {
      "constant": true,
      "inputs": [],
      "name": "getTestArray",
      "outputs": [
        {
          "name": "",
          "type": "string[]"
        }
      ],
      "payable": false,
      "stateMutability": "view",
      "type": "function"
    },
    {
      "constant": true,
      "inputs": [],
      "name": "getTestString",
      "outputs": [
        {
          "name": "",
          "type": "string"
        }
      ],
      "payable": false,
      "stateMutability": "view",
      "type": "function"
    },
    {
      "constant": true,
      "inputs": [],
      "name": "getTestBytes",
      "outputs": [
        {
          "name": "",
          "type": "bytes32"
        }
      ],
      "payable": false,
      "stateMutability": "view",
      "type": "function"
    },
    {
      "constant": true,
      "inputs": [],
      "name": "getPaperHashesOriginal",
      "outputs": [
        {
          "name": "",
          "type": "bytes32"
        }
      ],
      "payable": false,
      "stateMutability": "view",
      "type": "function"
    },
    {
      "constant": true,
      "inputs": [],
      "name": "getPaperHashesTotal",
      "outputs": [
        {
          "name": "",
          "type": "bytes32"
        }
      ],
      "payable": false,
      "stateMutability": "view",
      "type": "function"
    },
    {
      "constant": false,
      "inputs": [
        {
          "name": "_paperAuthorAddress",
          "type": "address"
        },
        {
          "name": "_authorName",
          "type": "string"
        },
        {
          "name": "_paperHash",
          "type": "bytes32"
        }
      ],
      "name": "setPaper",
      "outputs": [],
      "payable": true,
      "stateMutability": "payable",
      "type": "function"
    },
    {
      "constant": false,
      "inputs": [
        {
          "name": "_paperHash",
          "type": "bytes32"
        }
      ],
      "name": "releaseEtherToReviewers",
      "outputs": [],
      "payable": true,
      "stateMutability": "payable",
      "type": "function"
    },
    {
      "constant": false,
      "inputs": [
        {
          "name": "_oldPaperHash",
          "type": "bytes32"
        },
        {
          "name": "_newPaperHash",
          "type": "bytes32"
        }
      ],
      "name": "updatePaper",
      "outputs": [],
      "payable": false,
      "stateMutability": "nonpayable",
      "type": "function"
    },
    {
      "constant": true,
      "inputs": [
        {
          "name": "_paperHash",
          "type": "bytes32"
        }
      ],
      "name": "getRootPaperHash",
      "outputs": [
        {
          "name": "",
          "type": "bytes32"
        }
      ],
      "payable": false,
      "stateMutability": "view",
      "type": "function"
    },
    {
      "constant": false,
      "inputs": [
        {
          "name": "_paperHash",
          "type": "bytes32"
        },
        {
          "name": "_reviewerAddress",
          "type": "address"
        },
        {
          "name": "_reviewHash",
          "type": "bytes32"
        },
        {
          "name": "_overallEvaluation",
          "type": "int256"
        },
        {
          "name": "_reviewerConfidence",
          "type": "int256"
        }
      ],
      "name": "setReview",
      "outputs": [],
      "payable": false,
      "stateMutability": "nonpayable",
      "type": "function"
    },
    {
      "constant": true,
      "inputs": [],
      "name": "countOriginalPapers",
      "outputs": [
        {
          "name": "",
          "type": "uint256"
        }
      ],
      "payable": false,
      "stateMutability": "view",
      "type": "function"
    },
    {
      "constant": true,
      "inputs": [],
      "name": "countTotalPapers",
      "outputs": [
        {
          "name": "",
          "type": "uint256"
        }
      ],
      "payable": false,
      "stateMutability": "view",
      "type": "function"
    },
    {
      "constant": true,
      "inputs": [
        {
          "name": "_authurWalletAddress",
          "type": "address"
        }
      ],
      "name": "getPaperHashesByAuthorWalletaddress",
      "outputs": [
        {
          "name": "",
          "type": "bytes32[]"
        }
      ],
      "payable": false,
      "stateMutability": "view",
      "type": "function"
    },
    {
      "constant": true,
      "inputs": [
        {
          "name": "_authurWalletAddress",
          "type": "address"
        }
      ],
      "name": "getNrOfPapersPublishedByAuthorWalletaddress",
      "outputs": [
        {
          "name": "count",
          "type": "uint256"
        }
      ],
      "payable": false,
      "stateMutability": "view",
      "type": "function"
    }
  ],
  "bytecode": "0x608060405260408051908101604052806040805190810160405280600b81526020017f48656c6c6f20576f726c6400000000000000000000000000000000000000000081525081526020016040805190810160405280600c81526020017f48656c6c6f20506c616e6574000000000000000000000000000000000000000081525081525060049060026200009592919062000288565b506040805190810160405280600b81526020017f48656c6c6f20576f726c6400000000000000000000000000000000000000000081525060059080519060200190620000e3929190620002ef565b507f54657374204279746573000000000000000000000000000000000000000000006006556040805190810160405280608060405190810160405280604281526020017f307866373762383839653635303765346632373065356164653934353933643381526020017f646134356532313937303038323932653035386633303433386338653161626481526020017f35350000000000000000000000000000000000000000000000000000000000008152508152602001608060405190810160405280604281526020017f307835306631623638633233663334366562643237653935346432303531383881526020017f613138386262666231363166376462643533666263346265376562653831323681526020017f656400000000000000000000000000000000000000000000000000000000000081525081525060079060026200023392919062000288565b503480156200024157600080fd5b50336000806101000a81548173ffffffffffffffffffffffffffffffffffffffff021916908373ffffffffffffffffffffffffffffffffffffffff160217905550620004a2565b828054828255906000526020600020908101928215620002dc579160200282015b82811115620002db578251829080519060200190620002ca92919062000376565b5091602001919060010190620002a9565b5b509050620002eb9190620003fd565b5090565b828054600181600116156101000203166002900490600052602060002090601f016020900481019282601f106200033257805160ff191683800117855562000363565b8280016001018555821562000363579182015b828111156200036257825182559160200191906001019062000345565b5b5090506200037291906200042e565b5090565b828054600181600116156101000203166002900490600052602060002090601f016020900481019282601f10620003b957805160ff1916838001178555620003ea565b82800160010185558215620003ea579182015b82811115620003e9578251825591602001919060010190620003cc565b5b509050620003f991906200042e565b5090565b6200042b91905b808211156200042757600081816200041d919062000456565b5060010162000404565b5090565b90565b6200045391905b808211156200044f57600081600090555060010162000435565b5090565b90565b50805460018160011615610100020316600290046000825580601f106200047e57506200049f565b601f0160209004906000526020600020908101906200049e91906200042e565b5b50565b61297f80620004b26000396000f3fe60806040526004361061012d576000357c010000000000000000000000000000000000000000000000000000000090048063046401321461013257806309b3eef31461015d57806315bf4b05146101865780631830d167146101b157806323a13927146101ee57806324a15b7c146102195780632ad42201146102445780632dd3eb9f146102845780632f91be48146102c1578063463f5c30146102ec5780636349e42e1461032957806369c08c53146103455780636ced927b1461038257806378733299146103c95780637a302abb146103e5578063b7a8728714610410578063cd1d04121461043b578063d5aedd3314610478578063d629c337146104a3578063da19c835146104e0578063df827e9b1461051d578063ec0d095714610546578063fb8f0f5914610583575b600080fd5b34801561013e57600080fd5b506101476105ae565b60405161015491906125f8565b60405180910390f35b34801561016957600080fd5b50610184600480360361017f9190810190611f34565b610697565b005b34801561019257600080fd5b5061019b6107ea565b6040516101a8919061261a565b60405180910390f35b3480156101bd57600080fd5b506101d860048036036101d39190810190611e94565b6107f4565b6040516101e59190612679565b60405180910390f35b3480156101fa57600080fd5b50610203610bdb565b604051610210919061261a565b60405180910390f35b34801561022557600080fd5b5061022e610bfd565b60405161023b919061269b565b60405180910390f35b34801561025057600080fd5b5061026b60048036036102669190810190611e94565b610c0a565b60405161027b949392919061258a565b60405180910390f35b34801561029057600080fd5b506102ab60048036036102a69190810190611e94565b610cf2565b6040516102b8919061261a565b60405180910390f35b3480156102cd57600080fd5b506102d6610d6b565b6040516102e39190612657565b60405180910390f35b3480156102f857600080fd5b50610313600480360361030e9190810190611f70565b610e0d565b6040516103209190612635565b60405180910390f35b610343600480360361033e9190810190611e2d565b610ec8565b005b34801561035157600080fd5b5061036c60048036036103679190810190611e04565b6110dc565b60405161037991906125d6565b60405180910390f35b34801561038e57600080fd5b506103a960048036036103a49190810190611e94565b611213565b6040516103c09b9a999897969594939291906124a7565b60405180910390f35b6103e360048036036103de9190810190611e94565b61167d565b005b3480156103f157600080fd5b506103fa611830565b604051610407919061261a565b60405180910390f35b34801561041c57600080fd5b50610425611852565b604051610432919061269b565b60405180910390f35b34801561044757600080fd5b50610462600480360361045d9190810190611e04565b61185f565b60405161046f919061269b565b60405180910390f35b34801561048457600080fd5b5061048d61191c565b60405161049a919061261a565b60405180910390f35b3480156104af57600080fd5b506104ca60048036036104c59190810190611f70565b611922565b6040516104d7919061261a565b60405180910390f35b3480156104ec57600080fd5b5061050760048036036105029190810190611f70565b611945565b604051610514919061261a565b60405180910390f35b34801561052957600080fd5b50610544600480360361053f9190810190611ebd565b611968565b005b34801561055257600080fd5b5061056d60048036036105689190810190611f70565b611ae9565b60405161057a9190612635565b60405180910390f35b34801561058f57600080fd5b50610598611ba4565b6040516105a59190612635565b60405180910390f35b60606007805480602002602001604051908101604052809291908181526020016000905b8282101561068e578382906000526020600020018054600181600116156101000203166002900480601f01602080910402602001604051908101604052809291908181526020018280546001816001161561010002031660029004801561067a5780601f1061064f5761010080835404028352916020019161067a565b820191906000526020600020905b81548152906001019060200180831161065d57829003601f168201915b5050505050815260200190600101906105d2565b50505050905090565b80821415156107e65760006001600083815260200190815260200160002090506001600084815260200190815260200160002060000160009054906101000a900473ffffffffffffffffffffffffffffffffffffffff168160000160006101000a81548173ffffffffffffffffffffffffffffffffffffffff021916908373ffffffffffffffffffffffffffffffffffffffff1602179055508181600201819055508281600301819055506001600061074f85610cf2565b8152602001908152602001600020600401829080600181540180825580915050906001820390600052602060002001600090919290919091505550806005014290806001815401808255809150509060018203906000526020600020016000909192909190915055506003829080600181540180825580915050906001820390600052602060002001600090919290919091505550505b5050565b6000600654905090565b6107fc611c42565b600061080783610cf2565b90506001600082815260200190815260200160002061016060405190810160405290816000820160009054906101000a900473ffffffffffffffffffffffffffffffffffffffff1673ffffffffffffffffffffffffffffffffffffffff1673ffffffffffffffffffffffffffffffffffffffff168152602001600182018054600181600116156101000203166002900480601f0160208091040260200160405190810160405280929190818152602001828054600181600116156101000203166002900480156109185780601f106108ed57610100808354040283529160200191610918565b820191906000526020600020905b8154815290600101906020018083116108fb57829003601f168201915b5050505050815260200160028201548152602001600382015481526020016004820180548060200260200160405190810160405280929190818152602001828054801561098457602002820191906000526020600020905b815481526020019060010190808311610970575b50505050508152602001600582018054806020026020016040519081016040528092919081815260200182805480156109dc57602002820191906000526020600020905b8154815260200190600101908083116109c8575b5050505050815260200160068201805480602002602001604051908101604052809291908181526020018280548015610a6a57602002820191906000526020600020905b8160009054906101000a900473ffffffffffffffffffffffffffffffffffffffff1673ffffffffffffffffffffffffffffffffffffffff1681526020019060010190808311610a20575b5050505050815260200160078201805480602002602001604051908101604052809291908181526020018280548015610ac257602002820191906000526020600020905b815481526020019060010190808311610aae575b5050505050815260200160088201805480602002602001604051908101604052809291908181526020018280548015610b1a57602002820191906000526020600020905b815481526020019060010190808311610b06575b5050505050815260200160098201805480602002602001604051908101604052809291908181526020018280548015610b7257602002820191906000526020600020905b815481526020019060010190808311610b5e575b50505050508152602001600a8201805480602002602001604051908101604052809291908181526020018280548015610bca57602002820191906000526020600020905b815481526020019060010190808311610bb6575b505050505081525050915050919050565b600060036000815481101515610bed57fe5b9060005260206000200154905090565b6000600280549050905090565b60016020528060005260406000206000915090508060000160009054906101000a900473ffffffffffffffffffffffffffffffffffffffff1690806001018054600181600116156101000203166002900480601f016020809104026020016040519081016040528092919081815260200182805460018160011615610100020316600290048015610cdc5780601f10610cb157610100808354040283529160200191610cdc565b820191906000526020600020905b815481529060010190602001808311610cbf57829003601f168201915b5050505050908060020154908060030154905084565b6000806001905060008390505b8115610d6157600160008281526020019081526020016000206003015460016000838152602001908152602001600020600201541415610d425760009150610d5c565b600160008281526020019081526020016000206003015490505b610cff565b8092505050919050565b606060058054600181600116156101000203166002900480601f016020809104026020016040519081016040528092919081815260200182805460018160011615610100020316600290048015610e035780601f10610dd857610100808354040283529160200191610e03565b820191906000526020600020905b815481529060010190602001808311610de657829003601f168201915b5050505050905090565b600781815481101515610e1c57fe5b906000526020600020016000915090508054600181600116156101000203166002900480601f016020809104026020016040519081016040528092919081815260200182805460018160011615610100020316600290048015610ec05780601f10610e9557610100808354040283529160200191610ec0565b820191906000526020600020905b815481529060010190602001808311610ea357829003601f168201915b505050505081565b670de0b6b3a76400003410151515610edf57600080fd5b670de0b6b3a76400003373ffffffffffffffffffffffffffffffffffffffff1631111515610f0c57600080fd5b670de0b6b3a7640000341015156110d7576000809054906101000a900473ffffffffffffffffffffffffffffffffffffffff1673ffffffffffffffffffffffffffffffffffffffff166108fc3073ffffffffffffffffffffffffffffffffffffffff16319081150290604051600060405180830381858888f19350505050158015610f9b573d6000803e3d6000fd5b506000600160008381526020019081526020016000209050838160000160006101000a81548173ffffffffffffffffffffffffffffffffffffffff021916908373ffffffffffffffffffffffffffffffffffffffff1602179055508281600101908051906020019061100e929190611cb9565b50818160020181905550818160030181905550806004018290806001815401808255809150509060018203906000526020600020016000909192909190915055508060050142908060018154018082558091505090600182039060005260206000200160009091929091909150555060028290806001815401808255809150509060018203906000526020600020016000909192909190915055506003829080600181540180825580915050906001820390600052602060002001600090919290919091505550505b505050565b6060806110e88361185f565b6040519080825280602002602001820160405280156111165781602001602082028038833980820191505090505b50905060008090505b600380549050811015611209578373ffffffffffffffffffffffffffffffffffffffff166001600060038481548110151561115657fe5b9060005260206000200154815260200190815260200160002060000160009054906101000a900473ffffffffffffffffffffffffffffffffffffffff1673ffffffffffffffffffffffffffffffffffffffff1614156111fc57600160006003838154811015156111c257fe5b906000526020600020015481526020019081526020016000206002015482828151811015156111ed57fe5b90602001906020020181815250505b808060010191505061111f565b5080915050919050565b60006060600080606080606080606080606060006112308d610cf2565b90506001600082815260200190815260200160002060000160009054906101000a900473ffffffffffffffffffffffffffffffffffffffff16600160008381526020019081526020016000206001016001600084815260200190815260200160002060020154600160008581526020019081526020016000206003015460016000868152602001908152602001600020600401600160008781526020019081526020016000206005016001600088815260200190815260200160002060060160016000898152602001908152602001600020600701600160008a8152602001908152602001600020600801600160008b8152602001908152602001600020600901600160008c8152602001908152602001600020600a01898054600181600116156101000203166002900480601f0160208091040260200160405190810160405280929190818152602001828054600181600116156101000203166002900480156113dc5780601f106113b1576101008083540402835291602001916113dc565b820191906000526020600020905b8154815290600101906020018083116113bf57829003601f168201915b505050505099508680548060200260200160405190810160405280929190818152602001828054801561142e57602002820191906000526020600020905b81548152602001906001019080831161141a575b505050505096508580548060200260200160405190810160405280929190818152602001828054801561148057602002820191906000526020600020905b81548152602001906001019080831161146c575b505050505095508480548060200260200160405190810160405280929190818152602001828054801561150857602002820191906000526020600020905b8160009054906101000a900473ffffffffffffffffffffffffffffffffffffffff1673ffffffffffffffffffffffffffffffffffffffff16815260200190600101908083116114be575b505050505094508380548060200260200160405190810160405280929190818152602001828054801561155a57602002820191906000526020600020905b815481526020019060010190808311611546575b50505050509350828054806020026020016040519081016040528092919081815260200182805480156115ac57602002820191906000526020600020905b815481526020019060010190808311611598575b50505050509250818054806020026020016040519081016040528092919081815260200182805480156115fe57602002820191906000526020600020905b8154815260200190600101908083116115ea575b505050505091508080548060200260200160405190810160405280929190818152602001828054801561165057602002820191906000526020600020905b81548152602001906001019080831161163c575b505050505090509b509b509b509b509b509b509b509b509b509b509b505091939597999b90929496989a50565b606060016000838152602001908152602001600020600601805490506040519080825280602002602001820160405280156116c75781602001602082028038833980820191505090505b50905060008151678ac7230489e800008115156116e057fe5b04905060008090505b60016000858152602001908152602001600020600601805490508110156117af57600160008581526020019081526020016000206006018181548110151561172d57fe5b9060005260206000200160009054906101000a900473ffffffffffffffffffffffffffffffffffffffff16838281518110151561176657fe5b9060200190602002019073ffffffffffffffffffffffffffffffffffffffff16908173ffffffffffffffffffffffffffffffffffffffff168152505080806001019150506116e9565b5060008090505b825181101561182a5782818151811015156117cd57fe5b9060200190602002015173ffffffffffffffffffffffffffffffffffffffff166108fc839081150290604051600060405180830381858888f1935050505015801561181c573d6000803e3d6000fd5b5080806001019150506117b6565b50505050565b60006002600081548110151561184257fe5b9060005260206000200154905090565b6000600380549050905090565b6000806000905060008090505b600380549050811015611912578373ffffffffffffffffffffffffffffffffffffffff16600160006003848154811015156118a357fe5b9060005260206000200154815260200190815260200160002060000160009054906101000a900473ffffffffffffffffffffffffffffffffffffffff1673ffffffffffffffffffffffffffffffffffffffff1614156119055781806001019250505b808060010191505061186c565b5080915050919050565b60065481565b60038181548110151561193157fe5b906000526020600020016000915090505481565b60028181548110151561195457fe5b906000526020600020016000915090505481565b600160008681526020019081526020016000206006018490806001815401808255809150509060018203906000526020600020016000909192909190916101000a81548173ffffffffffffffffffffffffffffffffffffffff021916908373ffffffffffffffffffffffffffffffffffffffff1602179055505060016000868152602001908152602001600020600701839080600181540180825580915050906001820390600052602060002001600090919290919091505550600160008681526020019081526020016000206008014290806001815401808255809150509060018203906000526020600020016000909192909190915055506001600086815260200190815260200160002060090182908060018154018082558091505090600182039060005260206000200160009091929091909150555060016000868152602001908152602001600020600a018190806001815401808255809150509060018203906000526020600020016000909192909190915055505050505050565b600481815481101515611af857fe5b906000526020600020016000915090508054600181600116156101000203166002900480601f016020809104026020016040519081016040528092919081815260200182805460018160011615610100020316600290048015611b9c5780601f10611b7157610100808354040283529160200191611b9c565b820191906000526020600020905b815481529060010190602001808311611b7f57829003601f168201915b505050505081565b60058054600181600116156101000203166002900480601f016020809104026020016040519081016040528092919081815260200182805460018160011615610100020316600290048015611c3a5780601f10611c0f57610100808354040283529160200191611c3a565b820191906000526020600020905b815481529060010190602001808311611c1d57829003601f168201915b505050505081565b61016060405190810160405280600073ffffffffffffffffffffffffffffffffffffffff168152602001606081526020016000801916815260200160008019168152602001606081526020016060815260200160608152602001606081526020016060815260200160608152602001606081525090565b828054600181600116156101000203166002900490600052602060002090601f016020900481019282601f10611cfa57805160ff1916838001178555611d28565b82800160010185558215611d28579182015b82811115611d27578251825591602001919060010190611d0c565b5b509050611d359190611d39565b5090565b611d5b91905b80821115611d57576000816000905550600101611d3f565b5090565b90565b6000611d6a82356128c2565b905092915050565b6000611d7e82356128d4565b905092915050565b6000611d9282356128de565b905092915050565b600082601f8301121515611dad57600080fd5b8135611dc0611dbb826126e3565b6126b6565b91508082526020830160208301858383011115611ddc57600080fd5b611de78382846128f2565b50505092915050565b6000611dfc82356128e8565b905092915050565b600060208284031215611e1657600080fd5b6000611e2484828501611d5e565b91505092915050565b600080600060608486031215611e4257600080fd5b6000611e5086828701611d5e565b935050602084013567ffffffffffffffff811115611e6d57600080fd5b611e7986828701611d9a565b9250506040611e8a86828701611d72565b9150509250925092565b600060208284031215611ea657600080fd5b6000611eb484828501611d72565b91505092915050565b600080600080600060a08688031215611ed557600080fd5b6000611ee388828901611d72565b9550506020611ef488828901611d5e565b9450506040611f0588828901611d72565b9350506060611f1688828901611d86565b9250506080611f2788828901611d86565b9150509295509295909350565b60008060408385031215611f4757600080fd5b6000611f5585828601611d72565b9250506020611f6685828601611d72565b9150509250929050565b600060208284031215611f8257600080fd5b6000611f9084828501611df0565b91505092915050565b611fa281612872565b82525050565b6000611fb38261278f565b808452602084019350611fc58361271c565b60005b82811015611ff757611fdb868351611f99565b611fe48261280a565b9150602086019550600181019050611fc8565b50849250505092915050565b600061200e82612784565b8084526020840193506120208361270f565b60005b8281101561205257612036868351611f99565b61203f826127fd565b9150602086019550600181019050612023565b50849250505092915050565b6000612069826127a5565b80845260208401935061207b83612736565b60005b828110156120ad576120918683516122ee565b61209a82612824565b915060208601955060018101905061207e565b50849250505092915050565b60006120c48261279a565b8084526020840193506120d683612729565b60005b82811015612108576120ec8683516122ee565b6120f582612817565b91506020860195506001810190506120d9565b50849250505092915050565b600061211f826127bb565b80845260208401935061213183612750565b60005b82811015612163576121478683516122fd565b6121508261283e565b9150602086019550600181019050612134565b50849250505092915050565b600061217a826127b0565b80845260208401935061218c83612743565b60005b828110156121be576121a28683516122fd565b6121ab82612831565b915060208601955060018101905061218f565b50849250505092915050565b60006121d5826127c6565b808452602084019350836020820285016121ee8561275d565b60005b84811015612227578383038852612209838351612342565b92506122148261284b565b91506020880197506001810190506121f1565b508196508694505050505092915050565b6000612243826127dc565b80845260208401935061225583612777565b60005b828110156122875761226b868351612498565b61227482612865565b9150602086019550600181019050612258565b50849250505092915050565b600061229e826127d1565b8084526020840193506122b08361276a565b60005b828110156122e2576122c6868351612498565b6122cf82612858565b91506020860195506001810190506122b3565b50849250505092915050565b6122f781612884565b82525050565b6123068161288e565b82525050565b6000612317826127f2565b80845261232b816020860160208601612901565b61233481612934565b602085010191505092915050565b600061234d826127e7565b808452612361816020860160208601612901565b61236a81612934565b602085010191505092915050565b6000610160830160008301516123916000860182611f99565b50602083015184820360208601526123a98282612342565b91505060408301516123be60408601826122ee565b5060608301516123d160608601826122ee565b50608083015184820360808601526123e982826120b9565b91505060a083015184820360a08601526124038282612293565b91505060c083015184820360c086015261241d8282612003565b91505060e083015184820360e086015261243782826120b9565b9150506101008301518482036101008601526124538282612293565b91505061012083015184820361012086015261246f828261216f565b91505061014083015184820361014086015261248b828261216f565b9150508091505092915050565b6124a1816128b8565b82525050565b6000610160820190506124bd600083018e611f99565b81810360208301526124cf818d61230c565b90506124de604083018c6122ee565b6124eb606083018b6122ee565b81810360808301526124fd818a61205e565b905081810360a08301526125118189612238565b905081810360c08301526125258188611fa8565b905081810360e0830152612539818761205e565b905081810361010083015261254e8186612238565b90508181036101208301526125638185612114565b90508181036101408301526125788184612114565b90509c9b505050505050505050505050565b600060808201905061259f6000830187611f99565b81810360208301526125b18186612342565b90506125c060408301856122ee565b6125cd60608301846122ee565b95945050505050565b600060208201905081810360008301526125f0818461205e565b905092915050565b6000602082019050818103600083015261261281846121ca565b905092915050565b600060208201905061262f60008301846122ee565b92915050565b6000602082019050818103600083015261264f8184612342565b905092915050565b60006020820190508181036000830152612671818461230c565b905092915050565b600060208201905081810360008301526126938184612378565b905092915050565b60006020820190506126b06000830184612498565b92915050565b6000604051905081810181811067ffffffffffffffff821117156126d957600080fd5b8060405250919050565b600067ffffffffffffffff8211156126fa57600080fd5b601f19601f8301169050602081019050919050565b6000602082019050919050565b6000602082019050919050565b6000602082019050919050565b6000602082019050919050565b6000602082019050919050565b6000602082019050919050565b6000602082019050919050565b6000602082019050919050565b6000602082019050919050565b600081519050919050565b600081519050919050565b600081519050919050565b600081519050919050565b600081519050919050565b600081519050919050565b600081519050919050565b600081519050919050565b600081519050919050565b600081519050919050565b600081519050919050565b6000602082019050919050565b6000602082019050919050565b6000602082019050919050565b6000602082019050919050565b6000602082019050919050565b6000602082019050919050565b6000602082019050919050565b6000602082019050919050565b6000602082019050919050565b600061287d82612898565b9050919050565b6000819050919050565b6000819050919050565b600073ffffffffffffffffffffffffffffffffffffffff82169050919050565b6000819050919050565b60006128cd82612898565b9050919050565b6000819050919050565b6000819050919050565b6000819050919050565b82818337600083830152505050565b60005b8381101561291f578082015181840152602081019050612904565b8381111561292e576000848401525b50505050565b6000601f19601f830116905091905056fea265627a7a7230582001f20c075e0dd6310ffea64a32e6878a3de4d0835c03d8b57e61efe10306813e6c6578706572696d656e74616cf50037",
  "source": "pragma solidity >=0.4.22 <0.6.0;\npragma experimental ABIEncoderV2;\n\ncontract PaperReviewHistory {\n    //address payable owner;\n    address payable owner;\n\n    struct PaperReview {\n        address paperAuthorAddress;\n        string authorName;\n        bytes32 paperHash; //paper can have multiple hashes, as there may be multiple review rounds and a chance for improving the paper and resubmitting\n        bytes32 parentPaperHash; //\n        bytes32[] paperHashHistory; //Only filled by root paper hash\n        uint256[] paperTimestamps;\n        address[] reviewerAddresses;\n        bytes32[] reviewHashes;\n        uint256[] reviewerTimestamps;\n        int[] overallEvaluation;\n        int[] reviewerConfidence;\n    }\n\n    mapping (bytes32 => PaperReview) public papers;\n\n    bytes32[] public paperHashesOriginal; //Only the root paper hashes (the first ever submitted paper hashes)\n    bytes32[] public paperHashesTotal; //All paper hashes including the improved ones for the next review round\n\n    string[] public testStringArr = [\"Hello World\", \"Hello Planet\"];\n    string public testString = \"Hello World\";\n    bytes32 public testBytes = \"Test Bytes\";\n    string[] public testArray= [\"0xf77b889e6507e4f270e5ade94593d3da45e2197008292e058f30438c8e1abd55\",\"0x50f1b68c23f346ebd27e954d205188a188bbfb161f7dbd53fbc4be7ebe8126ed\"];\n\n    /*function getPaperReviewHistory(bytes32 paperHash) view public returns (address, string memory, bytes32, bytes32, bytes32[] memory, uint256[] memory, address[] memory, string[] memory, bytes32[] memory, uint256[] memory, int[] memory, int[] memory ){//, string memory, bytes32, bytes32) {//, bytes32, uint256, address, string memory, bytes32, uint256, int8, int8) {\n        bytes32 rootHash = getRootPaperHash(paperHash);\n        return (papers[rootHash].paperAuthorAddress, papers[rootHash].authorName, papers[rootHash].paperHash, papers[rootHash].parentPaperHash, papers[rootHash].paperHashHistory, papers[rootHash].paperTimestamps, papers[rootHash].reviewerAddresses, papers[rootHash].reviewerNames, papers[rootHash].reviewHashes, papers[rootHash].reviewerTimestamps, papers[rootHash].overallEvaluation, papers[rootHash].reviewerConfidence);//, papers[rootHash].parentPaperHash);\n    }*/\n\n    function getPaperReviewHistory(bytes32 paperHash) view public returns (address, string memory, bytes32, bytes32, bytes32[] memory, uint256[] memory, address[] memory, bytes32[] memory, uint256[] memory, int[] memory, int[] memory ){//, string memory, bytes32, bytes32) {//, bytes32, uint256, address, string memory, bytes32, uint256, int8, int8) {\n        bytes32 rootHash = getRootPaperHash(paperHash);\n        return (papers[rootHash].paperAuthorAddress, papers[rootHash].authorName, papers[rootHash].paperHash, papers[rootHash].parentPaperHash, papers[rootHash].paperHashHistory, papers[rootHash].paperTimestamps, papers[rootHash].reviewerAddresses, papers[rootHash].reviewHashes, papers[rootHash].reviewerTimestamps, papers[rootHash].overallEvaluation, papers[rootHash].reviewerConfidence);//, papers[rootHash].parentPaperHash);\n    }\n\n    function getPaperStruct(bytes32 paperHash) view public returns (PaperReview memory) {\n      bytes32 rootHash = getRootPaperHash(paperHash);\n      return papers[rootHash];\n    }\n\n    function getTestArray() view public returns (string[] memory) {\n      return testArray;\n    }\n\n    function getTestString() view public returns (string memory) {\n        return testString;\n    }\n\n    function getTestBytes() view public returns (bytes32) {\n        return testBytes;\n    }\n\n    function getPaperHashesOriginal() view public returns (bytes32) {\n        return paperHashesOriginal[0];\n    }\n\n    function getPaperHashesTotal() view public returns (bytes32) {\n        return paperHashesTotal[0];\n    }\n\n    constructor() public {\n        owner = msg.sender;\n    }\n\n    function setPaper(address _paperAuthorAddress, string memory _authorName, bytes32 _paperHash) public payable{ // \"0xFFcf8FDEE72ac11b5c542428B35EEF5769C409f0\", \"Jon Doe\", \"0xca978112ca1bbdcafac231b39a23dc4da786eff8147c4e72b9807785afee48bb\"\n        require(msg.value >= (1 * (10**18)));\n        require(address(msg.sender).balance > 1000000000000000000);\n\n        if(msg.value >= 1000000000000000000) {\n          owner.transfer(address(this).balance);\n          PaperReview storage paper = papers[_paperHash];\n          paper.paperAuthorAddress = _paperAuthorAddress;\n          paper.authorName = _authorName;\n          paper.paperHash = _paperHash;\n          paper.parentPaperHash = _paperHash;\n          paper.paperHashHistory.push(_paperHash);\n          paper.paperTimestamps.push(now);\n\n          paperHashesOriginal.push(_paperHash);\n          paperHashesTotal.push(_paperHash);\n        }\n    }\n\n    function releaseEtherToReviewers(bytes32 _paperHash) payable public {\n\n        address payable[] memory reviewerAddresses = new address payable[](papers[_paperHash].reviewerAddresses.length);\n        uint256 reviewerShare = 10000000000000000000 / reviewerAddresses.length;\n        for (uint i=0; i<papers[_paperHash].reviewerAddresses.length; i++) {\n            reviewerAddresses[i] = address(uint160(papers[_paperHash].reviewerAddresses[i]));\n        }\n        for (uint i=0; i<reviewerAddresses.length; i++) {\n            reviewerAddresses[i].transfer(reviewerShare);\n        }\n    }\n\n     function updatePaper(bytes32 _oldPaperHash, bytes32 _newPaperHash) public {\n        if(_oldPaperHash != _newPaperHash){\n          PaperReview storage paper = papers[_newPaperHash];\n          paper.paperAuthorAddress = papers[_oldPaperHash].paperAuthorAddress;\n          paper.paperHash = _newPaperHash;\n          paper.parentPaperHash = _oldPaperHash;\n          papers[getRootPaperHash(_oldPaperHash)].paperHashHistory.push(_newPaperHash);\n          paper.paperTimestamps.push(now);\n\n          paperHashesTotal.push(_newPaperHash);\n        }\n\n    }\n\n    function getRootPaperHash(bytes32 _paperHash) public view returns (bytes32){\n        bool flag = true;\n        bytes32 rootHash = _paperHash;\n        while(flag) {\n            if(papers[rootHash].paperHash == papers[rootHash].parentPaperHash) {\n                flag = false;\n            } else {\n                rootHash = papers[rootHash].parentPaperHash;\n            }\n        }\n\n        return rootHash;\n\n    }\n\n    function setReview(bytes32 _paperHash, address _reviewerAddress, bytes32 _reviewHash, int _overallEvaluation, int _reviewerConfidence) public {\n        papers[_paperHash].reviewerAddresses.push(_reviewerAddress);\n        papers[_paperHash].reviewHashes.push(_reviewHash);\n        papers[_paperHash].reviewerTimestamps.push(now);\n        papers[_paperHash].overallEvaluation.push(_overallEvaluation);\n        papers[_paperHash].reviewerConfidence.push(_reviewerConfidence);\n    }\n\n    function countOriginalPapers() view public returns (uint) {\n        return paperHashesOriginal.length;\n    }\n\n    function countTotalPapers() view public returns (uint) {\n        return paperHashesTotal.length;\n    }\n\n    function getPaperHashesByAuthorWalletaddress(address _authurWalletAddress) view public returns (bytes32[] memory) {\n        bytes32[] memory tmpHashesArray = new bytes32[](getNrOfPapersPublishedByAuthorWalletaddress(_authurWalletAddress));\n        //delete tmpHashesArray;\n        //bytes32[] memory tmpHashesArray;\n        for (uint i=0; i<paperHashesTotal.length; i++) {\n            if(papers[paperHashesTotal[i]].paperAuthorAddress == _authurWalletAddress){\n                tmpHashesArray[i] = papers[paperHashesTotal[i]].paperHash;\n                //tmpHashesArray.push(papers[paperHashesTotal[i]].paperHash);\n            }\n        }\n        return tmpHashesArray;\n    }\n\n    function getNrOfPapersPublishedByAuthorWalletaddress(address _authurWalletAddress) view public returns (uint256 count) {  //Includes everything also updated papers\n        uint256 counter = 0;\n        for (uint i=0; i<paperHashesTotal.length; i++) {\n            if(papers[paperHashesTotal[i]].paperAuthorAddress == _authurWalletAddress){\n                counter ++;\n            }\n        }\n        return counter;\n    }\n\n    /*function destroyMe() public {\n        require(address(msg.sender) == owner);\n        selfdestruct(owner);\n    }*/\n\n}\n",
  "sourcePath": "/Users/lucahernandezacosta/PowerFolders/powerfolder/Uni-Sachen/Project_Master/mern-auth/contracts/PaperReviewHistory.sol",
  "compiler": {
    "name": "solc",
    "version": "0.5.1+commit.c8a2cb62.Emscripten.clang"
  },
  "schemaVersion": "3.0.9",
  "updatedAt": "2019-09-19T01:39:11.513Z",
  "devdoc": {
    "methods": {}
  },
  "userdoc": {
    "methods": {}
  }
}