{
  "contractName": "PaperReviewHistory2",
  "abi": [
    {
      "constant": true,
      "inputs": [
        {
          "name": "",
          "type": "bytes32"
        }
      ],
      "name": "papers",
      "outputs": [
        {
          "name": "paperAuthorAddress",
          "type": "address"
        },
        {
          "name": "authorName",
          "type": "string"
        },
        {
          "name": "paperHash",
          "type": "bytes32"
        },
        {
          "name": "parentPaperHash",
          "type": "bytes32"
        }
      ],
      "payable": false,
      "stateMutability": "view",
      "type": "function"
    },
    {
      "constant": true,
      "inputs": [
        {
          "name": "",
          "type": "uint256"
        }
      ],
      "name": "testArray",
      "outputs": [
        {
          "name": "",
          "type": "string"
        }
      ],
      "payable": false,
      "stateMutability": "view",
      "type": "function"
    },
    {
      "constant": true,
      "inputs": [],
      "name": "testBytes",
      "outputs": [
        {
          "name": "",
          "type": "bytes32"
        }
      ],
      "payable": false,
      "stateMutability": "view",
      "type": "function"
    },
    {
      "constant": true,
      "inputs": [
        {
          "name": "",
          "type": "uint256"
        }
      ],
      "name": "paperHashesTotal",
      "outputs": [
        {
          "name": "",
          "type": "bytes32"
        }
      ],
      "payable": false,
      "stateMutability": "view",
      "type": "function"
    },
    {
      "constant": true,
      "inputs": [
        {
          "name": "",
          "type": "uint256"
        }
      ],
      "name": "paperHashesOriginal",
      "outputs": [
        {
          "name": "",
          "type": "bytes32"
        }
      ],
      "payable": false,
      "stateMutability": "view",
      "type": "function"
    },
    {
      "constant": true,
      "inputs": [
        {
          "name": "",
          "type": "uint256"
        }
      ],
      "name": "testStringArr",
      "outputs": [
        {
          "name": "",
          "type": "string"
        }
      ],
      "payable": false,
      "stateMutability": "view",
      "type": "function"
    },
    {
      "constant": true,
      "inputs": [],
      "name": "testString",
      "outputs": [
        {
          "name": "",
          "type": "string"
        }
      ],
      "payable": false,
      "stateMutability": "view",
      "type": "function"
    },
    {
      "inputs": [],
      "payable": false,
      "stateMutability": "nonpayable",
      "type": "constructor"
    },
    {
      "constant": true,
      "inputs": [
        {
          "name": "paperHash",
          "type": "bytes32"
        }
      ],
      "name": "getPaperReviewHistory",
      "outputs": [
        {
          "name": "",
          "type": "address"
        },
        {
          "name": "",
          "type": "string"
        },
        {
          "name": "",
          "type": "bytes32"
        },
        {
          "name": "",
          "type": "bytes32"
        },
        {
          "name": "",
          "type": "bytes32[]"
        },
        {
          "name": "",
          "type": "uint256[]"
        },
        {
          "name": "",
          "type": "address[]"
        },
        {
          "name": "",
          "type": "string[]"
        },
        {
          "name": "",
          "type": "bytes32[]"
        },
        {
          "name": "",
          "type": "uint256[]"
        },
        {
          "name": "",
          "type": "int256[]"
        },
        {
          "name": "",
          "type": "int256[]"
        }
      ],
      "payable": false,
      "stateMutability": "view",
      "type": "function"
    },
    {
      "constant": true,
      "inputs": [
        {
          "name": "paperHash",
          "type": "bytes32"
        }
      ],
      "name": "getPaperStruct",
      "outputs": [
        {
          "components": [
            {
              "name": "paperAuthorAddress",
              "type": "address"
            },
            {
              "name": "authorName",
              "type": "string"
            },
            {
              "name": "paperHash",
              "type": "bytes32"
            },
            {
              "name": "parentPaperHash",
              "type": "bytes32"
            },
            {
              "name": "paperHashHistory",
              "type": "bytes32[]"
            },
            {
              "name": "paperTimestamps",
              "type": "uint256[]"
            },
            {
              "name": "reviewerAddresses",
              "type": "address[]"
            },
            {
              "name": "reviewerNames",
              "type": "string[]"
            },
            {
              "name": "reviewHashes",
              "type": "bytes32[]"
            },
            {
              "name": "reviewerTimestamps",
              "type": "uint256[]"
            },
            {
              "name": "overallEvaluation",
              "type": "int256[]"
            },
            {
              "name": "reviewerConfidence",
              "type": "int256[]"
            }
          ],
          "name": "",
          "type": "tuple"
        }
      ],
      "payable": false,
      "stateMutability": "view",
      "type": "function"
    },
    {
      "constant": true,
      "inputs": [],
      "name": "getTestArray",
      "outputs": [
        {
          "name": "",
          "type": "string[]"
        }
      ],
      "payable": false,
      "stateMutability": "view",
      "type": "function"
    },
    {
      "constant": true,
      "inputs": [],
      "name": "getTestString",
      "outputs": [
        {
          "name": "",
          "type": "string"
        }
      ],
      "payable": false,
      "stateMutability": "view",
      "type": "function"
    },
    {
      "constant": true,
      "inputs": [],
      "name": "getTestBytes",
      "outputs": [
        {
          "name": "",
          "type": "bytes32"
        }
      ],
      "payable": false,
      "stateMutability": "view",
      "type": "function"
    },
    {
      "constant": true,
      "inputs": [],
      "name": "getPaperHashesOriginal",
      "outputs": [
        {
          "name": "",
          "type": "bytes32"
        }
      ],
      "payable": false,
      "stateMutability": "view",
      "type": "function"
    },
    {
      "constant": true,
      "inputs": [],
      "name": "getPaperHashesTotal",
      "outputs": [
        {
          "name": "",
          "type": "bytes32"
        }
      ],
      "payable": false,
      "stateMutability": "view",
      "type": "function"
    },
    {
      "constant": false,
      "inputs": [
        {
          "name": "_paperAuthorAddress",
          "type": "address"
        },
        {
          "name": "_authorName",
          "type": "string"
        },
        {
          "name": "_paperHash",
          "type": "bytes32"
        }
      ],
      "name": "setPaper",
      "outputs": [],
      "payable": false,
      "stateMutability": "nonpayable",
      "type": "function"
    },
    {
      "constant": false,
      "inputs": [
        {
          "name": "_oldPaperHash",
          "type": "bytes32"
        },
        {
          "name": "_newPaperHash",
          "type": "bytes32"
        }
      ],
      "name": "updatePaper",
      "outputs": [],
      "payable": false,
      "stateMutability": "nonpayable",
      "type": "function"
    },
    {
      "constant": true,
      "inputs": [
        {
          "name": "_paperHash",
          "type": "bytes32"
        }
      ],
      "name": "getRootPaperHash",
      "outputs": [
        {
          "name": "",
          "type": "bytes32"
        }
      ],
      "payable": false,
      "stateMutability": "view",
      "type": "function"
    },
    {
      "constant": false,
      "inputs": [
        {
          "name": "_paperHash",
          "type": "bytes32"
        },
        {
          "name": "_reviewerAddress",
          "type": "address"
        },
        {
          "name": "_reviewerName",
          "type": "string"
        },
        {
          "name": "_reviewHash",
          "type": "bytes32"
        },
        {
          "name": "_overallEvaluation",
          "type": "int256"
        },
        {
          "name": "_reviewerConfidence",
          "type": "int256"
        }
      ],
      "name": "setReview",
      "outputs": [],
      "payable": false,
      "stateMutability": "nonpayable",
      "type": "function"
    },
    {
      "constant": true,
      "inputs": [],
      "name": "countOriginalPapers",
      "outputs": [
        {
          "name": "",
          "type": "uint256"
        }
      ],
      "payable": false,
      "stateMutability": "view",
      "type": "function"
    },
    {
      "constant": true,
      "inputs": [],
      "name": "countTotalPapers",
      "outputs": [
        {
          "name": "",
          "type": "uint256"
        }
      ],
      "payable": false,
      "stateMutability": "view",
      "type": "function"
    },
    {
      "constant": true,
      "inputs": [
        {
          "name": "_authurWalletAddress",
          "type": "address"
        }
      ],
      "name": "getPaperHashesByAuthorWalletaddress",
      "outputs": [
        {
          "name": "",
          "type": "bytes32[]"
        }
      ],
      "payable": false,
      "stateMutability": "view",
      "type": "function"
    },
    {
      "constant": true,
      "inputs": [
        {
          "name": "_authurWalletAddress",
          "type": "address"
        }
      ],
      "name": "getNrOfPapersPublishedByAuthorWalletaddress",
      "outputs": [
        {
          "name": "count",
          "type": "uint256"
        }
      ],
      "payable": false,
      "stateMutability": "view",
      "type": "function"
    }
  ],
  "bytecode": "0x608060405260408051908101604052806040805190810160405280600b81526020017f48656c6c6f20576f726c6400000000000000000000000000000000000000000081525081526020016040805190810160405280600c81526020017f48656c6c6f20506c616e6574000000000000000000000000000000000000000081525081525060049060026200009592919062000288565b506040805190810160405280600b81526020017f48656c6c6f20576f726c6400000000000000000000000000000000000000000081525060059080519060200190620000e3929190620002ef565b507f54657374204279746573000000000000000000000000000000000000000000006006556040805190810160405280608060405190810160405280604281526020017f307866373762383839653635303765346632373065356164653934353933643381526020017f646134356532313937303038323932653035386633303433386338653161626481526020017f35350000000000000000000000000000000000000000000000000000000000008152508152602001608060405190810160405280604281526020017f307835306631623638633233663334366562643237653935346432303531383881526020017f613138386262666231363166376462643533666263346265376562653831323681526020017f656400000000000000000000000000000000000000000000000000000000000081525081525060079060026200023392919062000288565b503480156200024157600080fd5b50336000806101000a81548173ffffffffffffffffffffffffffffffffffffffff021916908373ffffffffffffffffffffffffffffffffffffffff160217905550620004a2565b828054828255906000526020600020908101928215620002dc579160200282015b82811115620002db578251829080519060200190620002ca92919062000376565b5091602001919060010190620002a9565b5b509050620002eb9190620003fd565b5090565b828054600181600116156101000203166002900490600052602060002090601f016020900481019282601f106200033257805160ff191683800117855562000363565b8280016001018555821562000363579182015b828111156200036257825182559160200191906001019062000345565b5b5090506200037291906200042e565b5090565b828054600181600116156101000203166002900490600052602060002090601f016020900481019282601f10620003b957805160ff1916838001178555620003ea565b82800160010185558215620003ea579182015b82811115620003e9578251825591602001919060010190620003cc565b5b509050620003f991906200042e565b5090565b6200042b91905b808211156200042757600081816200041d919062000456565b5060010162000404565b5090565b90565b6200045391905b808211156200044f57600081600090555060010162000435565b5090565b90565b50805460018160011615610100020316600290046000825580601f106200047e57506200049f565b601f0160209004906000526020600020908101906200049e91906200042e565b5b50565b612a7380620004b26000396000f3fe608060405260043610610122576000357c010000000000000000000000000000000000000000000000000000000090048063046401321461012757806309b3eef31461015257806315bf4b051461017b5780631830d167146101a657806323a13927146101e357806324a15b7c1461020e5780632ad42201146102395780632dd3eb9f146102795780632f91be48146102b6578063463f5c30146102e1578063607ba1a41461031e5780636349e42e1461034757806369c08c53146103705780636ced927b146103ad5780637a302abb146103f5578063b7a8728714610420578063cd1d04121461044b578063d5aedd3314610488578063d629c337146104b3578063da19c835146104f0578063ec0d09571461052d578063fb8f0f591461056a575b600080fd5b34801561013357600080fd5b5061013c610595565b60405161014991906126c7565b60405180910390f35b34801561015e57600080fd5b5061017960048036036101749190810190611f63565b61067e565b005b34801561018757600080fd5b50610190610837565b60405161019d91906126e9565b60405180910390f35b3480156101b257600080fd5b506101cd60048036036101c89190810190611e99565b610841565b6040516101da9190612748565b60405180910390f35b3480156101ef57600080fd5b506101f8610d11565b60405161020591906126e9565b60405180910390f35b34801561021a57600080fd5b50610223610d33565b604051610230919061276a565b60405180910390f35b34801561024557600080fd5b50610260600480360361025b9190810190611e99565b610d40565b6040516102709493929190612659565b60405180910390f35b34801561028557600080fd5b506102a0600480360361029b9190810190611e99565b610e28565b6040516102ad91906126e9565b60405180910390f35b3480156102c257600080fd5b506102cb610ea1565b6040516102d89190612726565b60405180910390f35b3480156102ed57600080fd5b5061030860048036036103039190810190611f9f565b610f43565b6040516103159190612704565b60405180910390f35b34801561032a57600080fd5b5061034560048036036103409190810190611ec2565b610ffe565b005b34801561035357600080fd5b5061036e60048036036103699190810190611e32565b6111d3565b005b34801561037c57600080fd5b5061039760048036036103929190810190611e09565b611312565b6040516103a491906126a5565b60405180910390f35b3480156103b957600080fd5b506103d460048036036103cf9190810190611e99565b611449565b6040516103ec9c9b9a99989796959493929190612560565b60405180910390f35b34801561040157600080fd5b5061040a6119af565b60405161041791906126e9565b60405180910390f35b34801561042c57600080fd5b506104356119d1565b604051610442919061276a565b60405180910390f35b34801561045757600080fd5b50610472600480360361046d9190810190611e09565b6119de565b60405161047f919061276a565b60405180910390f35b34801561049457600080fd5b5061049d611a9b565b6040516104aa91906126e9565b60405180910390f35b3480156104bf57600080fd5b506104da60048036036104d59190810190611f9f565b611aa1565b6040516104e791906126e9565b60405180910390f35b3480156104fc57600080fd5b5061051760048036036105129190810190611f9f565b611ac4565b60405161052491906126e9565b60405180910390f35b34801561053957600080fd5b50610554600480360361054f9190810190611f9f565b611ae7565b6040516105619190612704565b60405180910390f35b34801561057657600080fd5b5061057f611ba2565b60405161058c9190612704565b60405180910390f35b60606007805480602002602001604051908101604052809291908181526020016000905b82821015610675578382906000526020600020018054600181600116156101000203166002900480601f0160208091040260200160405190810160405280929190818152602001828054600181600116156101000203166002900480156106615780601f1061063657610100808354040283529160200191610661565b820191906000526020600020905b81548152906001019060200180831161064457829003601f168201915b5050505050815260200190600101906105b9565b50505050905090565b6001600083815260200190815260200160002060000160009054906101000a900473ffffffffffffffffffffffffffffffffffffffff1673ffffffffffffffffffffffffffffffffffffffff163373ffffffffffffffffffffffffffffffffffffffff161415156106ee57600080fd5b60006001600083815260200190815260200160002090506001600084815260200190815260200160002060000160009054906101000a900473ffffffffffffffffffffffffffffffffffffffff168160000160006101000a81548173ffffffffffffffffffffffffffffffffffffffff021916908373ffffffffffffffffffffffffffffffffffffffff1602179055508181600201819055508281600301819055506001600061079d85610e28565b8152602001908152602001600020600401829080600181540180825580915050906001820390600052602060002001600090919290919091505550806005014290806001815401808255809150509060018203906000526020600020016000909192909190915055506003829080600181540180825580915050906001820390600052602060002001600090919290919091505550505050565b6000600654905090565b610849611c40565b600061085483610e28565b90506001600082815260200190815260200160002061018060405190810160405290816000820160009054906101000a900473ffffffffffffffffffffffffffffffffffffffff1673ffffffffffffffffffffffffffffffffffffffff1673ffffffffffffffffffffffffffffffffffffffff168152602001600182018054600181600116156101000203166002900480601f0160208091040260200160405190810160405280929190818152602001828054600181600116156101000203166002900480156109655780601f1061093a57610100808354040283529160200191610965565b820191906000526020600020905b81548152906001019060200180831161094857829003601f168201915b505050505081526020016002820154815260200160038201548152602001600482018054806020026020016040519081016040528092919081815260200182805480156109d157602002820191906000526020600020905b8154815260200190600101908083116109bd575b5050505050815260200160058201805480602002602001604051908101604052809291908181526020018280548015610a2957602002820191906000526020600020905b815481526020019060010190808311610a15575b5050505050815260200160068201805480602002602001604051908101604052809291908181526020018280548015610ab757602002820191906000526020600020905b8160009054906101000a900473ffffffffffffffffffffffffffffffffffffffff1673ffffffffffffffffffffffffffffffffffffffff1681526020019060010190808311610a6d575b5050505050815260200160078201805480602002602001604051908101604052809291908181526020016000905b82821015610ba1578382906000526020600020018054600181600116156101000203166002900480601f016020809104026020016040519081016040528092919081815260200182805460018160011615610100020316600290048015610b8d5780601f10610b6257610100808354040283529160200191610b8d565b820191906000526020600020905b815481529060010190602001808311610b7057829003601f168201915b505050505081526020019060010190610ae5565b50505050815260200160088201805480602002602001604051908101604052809291908181526020018280548015610bf857602002820191906000526020600020905b815481526020019060010190808311610be4575b5050505050815260200160098201805480602002602001604051908101604052809291908181526020018280548015610c5057602002820191906000526020600020905b815481526020019060010190808311610c3c575b50505050508152602001600a8201805480602002602001604051908101604052809291908181526020018280548015610ca857602002820191906000526020600020905b815481526020019060010190808311610c94575b50505050508152602001600b8201805480602002602001604051908101604052809291908181526020018280548015610d0057602002820191906000526020600020905b815481526020019060010190808311610cec575b505050505081525050915050919050565b600060036000815481101515610d2357fe5b9060005260206000200154905090565b6000600280549050905090565b60016020528060005260406000206000915090508060000160009054906101000a900473ffffffffffffffffffffffffffffffffffffffff1690806001018054600181600116156101000203166002900480601f016020809104026020016040519081016040528092919081815260200182805460018160011615610100020316600290048015610e125780601f10610de757610100808354040283529160200191610e12565b820191906000526020600020905b815481529060010190602001808311610df557829003601f168201915b5050505050908060020154908060030154905084565b6000806001905060008390505b8115610e9757600160008281526020019081526020016000206003015460016000838152602001908152602001600020600201541415610e785760009150610e92565b600160008281526020019081526020016000206003015490505b610e35565b8092505050919050565b606060058054600181600116156101000203166002900480601f016020809104026020016040519081016040528092919081815260200182805460018160011615610100020316600290048015610f395780601f10610f0e57610100808354040283529160200191610f39565b820191906000526020600020905b815481529060010190602001808311610f1c57829003601f168201915b5050505050905090565b600781815481101515610f5257fe5b906000526020600020016000915090508054600181600116156101000203166002900480601f016020809104026020016040519081016040528092919081815260200182805460018160011615610100020316600290048015610ff65780601f10610fcb57610100808354040283529160200191610ff6565b820191906000526020600020905b815481529060010190602001808311610fd957829003601f168201915b505050505081565b600160008781526020019081526020016000206006018590806001815401808255809150509060018203906000526020600020016000909192909190916101000a81548173ffffffffffffffffffffffffffffffffffffffff021916908373ffffffffffffffffffffffffffffffffffffffff16021790555050600160008781526020019081526020016000206007018490806001815401808255809150509060018203906000526020600020016000909192909190915090805190602001906110c9929190611cbe565b5050600160008781526020019081526020016000206008018390806001815401808255809150509060018203906000526020600020016000909192909190915055506001600087815260200190815260200160002060090142908060018154018082558091505090600182039060005260206000200160009091929091909150555060016000878152602001908152602001600020600a0182908060018154018082558091505090600182039060005260206000200160009091929091909150555060016000878152602001908152602001600020600b01819080600181540180825580915050906001820390600052602060002001600090919290919091505550505050505050565b6000600160008381526020019081526020016000209050838160000160006101000a81548173ffffffffffffffffffffffffffffffffffffffff021916908373ffffffffffffffffffffffffffffffffffffffff16021790555082816001019080519060200190611245929190611cbe565b5081816002018190555081816003018190555080600401829080600181540180825580915050906001820390600052602060002001600090919290919091505550806005014290806001815401808255809150509060018203906000526020600020016000909192909190915055506002829080600181540180825580915050906001820390600052602060002001600090919290919091505550600382908060018154018082558091505090600182039060005260206000200160009091929091909150555050505050565b60608061131e836119de565b60405190808252806020026020018201604052801561134c5781602001602082028038833980820191505090505b50905060008090505b60038054905081101561143f578373ffffffffffffffffffffffffffffffffffffffff166001600060038481548110151561138c57fe5b9060005260206000200154815260200190815260200160002060000160009054906101000a900473ffffffffffffffffffffffffffffffffffffffff1673ffffffffffffffffffffffffffffffffffffffff16141561143257600160006003838154811015156113f857fe5b9060005260206000200154815260200190815260200160002060020154828281518110151561142357fe5b90602001906020020181815250505b8080600101915050611355565b5080915050919050565b6000606060008060608060608060608060608060006114678e610e28565b90506001600082815260200190815260200160002060000160009054906101000a900473ffffffffffffffffffffffffffffffffffffffff16600160008381526020019081526020016000206001016001600084815260200190815260200160002060020154600160008581526020019081526020016000206003015460016000868152602001908152602001600020600401600160008781526020019081526020016000206005016001600088815260200190815260200160002060060160016000898152602001908152602001600020600701600160008a8152602001908152602001600020600801600160008b8152602001908152602001600020600901600160008c8152602001908152602001600020600a01600160008d8152602001908152602001600020600b018a8054600181600116156101000203166002900480601f0160208091040260200160405190810160405280929190818152602001828054600181600116156101000203166002900480156116295780601f106115fe57610100808354040283529160200191611629565b820191906000526020600020905b81548152906001019060200180831161160c57829003601f168201915b50505050509a508780548060200260200160405190810160405280929190818152602001828054801561167b57602002820191906000526020600020905b815481526020019060010190808311611667575b50505050509750868054806020026020016040519081016040528092919081815260200182805480156116cd57602002820191906000526020600020905b8154815260200190600101908083116116b9575b505050505096508580548060200260200160405190810160405280929190818152602001828054801561175557602002820191906000526020600020905b8160009054906101000a900473ffffffffffffffffffffffffffffffffffffffff1673ffffffffffffffffffffffffffffffffffffffff168152602001906001019080831161170b575b5050505050955084805480602002602001604051908101604052809291908181526020016000905b82821015611839578382906000526020600020018054600181600116156101000203166002900480601f0160208091040260200160405190810160405280929190818152602001828054600181600116156101000203166002900480156118255780601f106117fa57610100808354040283529160200191611825565b820191906000526020600020905b81548152906001019060200180831161180857829003601f168201915b50505050508152602001906001019061177d565b5050505094508380548060200260200160405190810160405280929190818152602001828054801561188a57602002820191906000526020600020905b815481526020019060010190808311611876575b50505050509350828054806020026020016040519081016040528092919081815260200182805480156118dc57602002820191906000526020600020905b8154815260200190600101908083116118c8575b505050505092508180548060200260200160405190810160405280929190818152602001828054801561192e57602002820191906000526020600020905b81548152602001906001019080831161191a575b505050505091508080548060200260200160405190810160405280929190818152602001828054801561198057602002820191906000526020600020905b81548152602001906001019080831161196c575b505050505090509c509c509c509c509c509c509c509c509c509c509c509c505091939597999b5091939597999b565b6000600260008154811015156119c157fe5b9060005260206000200154905090565b6000600380549050905090565b6000806000905060008090505b600380549050811015611a91578373ffffffffffffffffffffffffffffffffffffffff1660016000600384815481101515611a2257fe5b9060005260206000200154815260200190815260200160002060000160009054906101000a900473ffffffffffffffffffffffffffffffffffffffff1673ffffffffffffffffffffffffffffffffffffffff161415611a845781806001019250505b80806001019150506119eb565b5080915050919050565b60065481565b600381815481101515611ab057fe5b906000526020600020016000915090505481565b600281815481101515611ad357fe5b906000526020600020016000915090505481565b600481815481101515611af657fe5b906000526020600020016000915090508054600181600116156101000203166002900480601f016020809104026020016040519081016040528092919081815260200182805460018160011615610100020316600290048015611b9a5780601f10611b6f57610100808354040283529160200191611b9a565b820191906000526020600020905b815481529060010190602001808311611b7d57829003601f168201915b505050505081565b60058054600181600116156101000203166002900480601f016020809104026020016040519081016040528092919081815260200182805460018160011615610100020316600290048015611c385780601f10611c0d57610100808354040283529160200191611c38565b820191906000526020600020905b815481529060010190602001808311611c1b57829003601f168201915b505050505081565b61018060405190810160405280600073ffffffffffffffffffffffffffffffffffffffff16815260200160608152602001600080191681526020016000801916815260200160608152602001606081526020016060815260200160608152602001606081526020016060815260200160608152602001606081525090565b828054600181600116156101000203166002900490600052602060002090601f016020900481019282601f10611cff57805160ff1916838001178555611d2d565b82800160010185558215611d2d579182015b82811115611d2c578251825591602001919060010190611d11565b5b509050611d3a9190611d3e565b5090565b611d6091905b80821115611d5c576000816000905550600101611d44565b5090565b90565b6000611d6f82356129b6565b905092915050565b6000611d8382356129c8565b905092915050565b6000611d9782356129d2565b905092915050565b600082601f8301121515611db257600080fd5b8135611dc5611dc0826127b2565b612785565b91508082526020830160208301858383011115611de157600080fd5b611dec8382846129e6565b50505092915050565b6000611e0182356129dc565b905092915050565b600060208284031215611e1b57600080fd5b6000611e2984828501611d63565b91505092915050565b600080600060608486031215611e4757600080fd5b6000611e5586828701611d63565b935050602084013567ffffffffffffffff811115611e7257600080fd5b611e7e86828701611d9f565b9250506040611e8f86828701611d77565b9150509250925092565b600060208284031215611eab57600080fd5b6000611eb984828501611d77565b91505092915050565b60008060008060008060c08789031215611edb57600080fd5b6000611ee989828a01611d77565b9650506020611efa89828a01611d63565b955050604087013567ffffffffffffffff811115611f1757600080fd5b611f2389828a01611d9f565b9450506060611f3489828a01611d77565b9350506080611f4589828a01611d8b565b92505060a0611f5689828a01611d8b565b9150509295509295509295565b60008060408385031215611f7657600080fd5b6000611f8485828601611d77565b9250506020611f9585828601611d77565b9150509250929050565b600060208284031215611fb157600080fd5b6000611fbf84828501611df5565b91505092915050565b611fd181612966565b82525050565b6000611fe28261286b565b808452602084019350611ff4836127eb565b60005b828110156120265761200a868351611fc8565b612013826128f1565b9150602086019550600181019050611ff7565b50849250505092915050565b600061203d82612860565b80845260208401935061204f836127de565b60005b8281101561208157612065868351611fc8565b61206e826128e4565b9150602086019550600181019050612052565b50849250505092915050565b600061209882612881565b8084526020840193506120aa83612805565b60005b828110156120dc576120c086835161238b565b6120c98261290b565b91506020860195506001810190506120ad565b50849250505092915050565b60006120f382612876565b808452602084019350612105836127f8565b60005b828110156121375761211b86835161238b565b612124826128fe565b9150602086019550600181019050612108565b50849250505092915050565b600061214e82612897565b8084526020840193506121608361281f565b60005b828110156121925761217686835161239a565b61217f82612925565b9150602086019550600181019050612163565b50849250505092915050565b60006121a98261288c565b8084526020840193506121bb83612812565b60005b828110156121ed576121d186835161239a565b6121da82612918565b91506020860195506001810190506121be565b50849250505092915050565b6000612204826128ad565b8084526020840193508360208202850161221d85612839565b60005b848110156122565783830388526122388383516123df565b92506122438261293f565b9150602088019750600181019050612220565b508196508694505050505092915050565b6000612272826128a2565b8084526020840193508360208202850161228b8561282c565b60005b848110156122c45783830388526122a68383516123df565b92506122b182612932565b915060208801975060018101905061228e565b508196508694505050505092915050565b60006122e0826128c3565b8084526020840193506122f283612853565b60005b8281101561232457612308868351612551565b61231182612959565b91506020860195506001810190506122f5565b50849250505092915050565b600061233b826128b8565b80845260208401935061234d83612846565b60005b8281101561237f57612363868351612551565b61236c8261294c565b9150602086019550600181019050612350565b50849250505092915050565b61239481612978565b82525050565b6123a381612982565b82525050565b60006123b4826128d9565b8084526123c88160208601602086016129f5565b6123d181612a28565b602085010191505092915050565b60006123ea826128ce565b8084526123fe8160208601602086016129f5565b61240781612a28565b602085010191505092915050565b60006101808301600083015161242e6000860182611fc8565b506020830151848203602086015261244682826123df565b915050604083015161245b604086018261238b565b50606083015161246e606086018261238b565b506080830151848203608086015261248682826120e8565b91505060a083015184820360a08601526124a08282612330565b91505060c083015184820360c08601526124ba8282612032565b91505060e083015184820360e08601526124d48282612267565b9150506101008301518482036101008601526124f082826120e8565b91505061012083015184820361012086015261250c8282612330565b915050610140830151848203610140860152612528828261219e565b915050610160830151848203610160860152612544828261219e565b9150508091505092915050565b61255a816129ac565b82525050565b600061018082019050612576600083018f611fc8565b8181036020830152612588818e6123a9565b9050612597604083018d61238b565b6125a4606083018c61238b565b81810360808301526125b6818b61208d565b905081810360a08301526125ca818a6122d5565b905081810360c08301526125de8189611fd7565b905081810360e08301526125f281886121f9565b9050818103610100830152612607818761208d565b905081810361012083015261261c81866122d5565b90508181036101408301526126318185612143565b90508181036101608301526126468184612143565b90509d9c50505050505050505050505050565b600060808201905061266e6000830187611fc8565b818103602083015261268081866123df565b905061268f604083018561238b565b61269c606083018461238b565b95945050505050565b600060208201905081810360008301526126bf818461208d565b905092915050565b600060208201905081810360008301526126e181846121f9565b905092915050565b60006020820190506126fe600083018461238b565b92915050565b6000602082019050818103600083015261271e81846123df565b905092915050565b6000602082019050818103600083015261274081846123a9565b905092915050565b600060208201905081810360008301526127628184612415565b905092915050565b600060208201905061277f6000830184612551565b92915050565b6000604051905081810181811067ffffffffffffffff821117156127a857600080fd5b8060405250919050565b600067ffffffffffffffff8211156127c957600080fd5b601f19601f8301169050602081019050919050565b6000602082019050919050565b6000602082019050919050565b6000602082019050919050565b6000602082019050919050565b6000602082019050919050565b6000602082019050919050565b6000602082019050919050565b6000602082019050919050565b6000602082019050919050565b6000602082019050919050565b600081519050919050565b600081519050919050565b600081519050919050565b600081519050919050565b600081519050919050565b600081519050919050565b600081519050919050565b600081519050919050565b600081519050919050565b600081519050919050565b600081519050919050565b600081519050919050565b6000602082019050919050565b6000602082019050919050565b6000602082019050919050565b6000602082019050919050565b6000602082019050919050565b6000602082019050919050565b6000602082019050919050565b6000602082019050919050565b6000602082019050919050565b6000602082019050919050565b60006129718261298c565b9050919050565b6000819050919050565b6000819050919050565b600073ffffffffffffffffffffffffffffffffffffffff82169050919050565b6000819050919050565b60006129c18261298c565b9050919050565b6000819050919050565b6000819050919050565b6000819050919050565b82818337600083830152505050565b60005b83811015612a135780820151818401526020810190506129f8565b83811115612a22576000848401525b50505050565b6000601f19601f830116905091905056fea265627a7a723058204b27146779cc9949871b643126e6945df171316780885086496c52a5b63d8caa6c6578706572696d656e74616cf50037",
  "source": "pragma solidity >=0.4.22 <0.6.0;\npragma experimental ABIEncoderV2;\n\ncontract PaperReviewHistory2 {\n    //address payable owner;\n    address owner;\n\n    struct PaperReview {\n        address paperAuthorAddress;\n        string authorName;\n        bytes32 paperHash; //paper can have multiple hashes, as there may be multiple review rounds and a chance for improving the paper and resubmitting\n        bytes32 parentPaperHash; //\n        bytes32[] paperHashHistory; //Only filled by root paper hash\n        uint256[] paperTimestamps;\n        address[] reviewerAddresses;\n        string[] reviewerNames;\n        bytes32[] reviewHashes;\n        uint256[] reviewerTimestamps;\n        int[] overallEvaluation;\n        int[] reviewerConfidence;\n    }\n\n    mapping (bytes32 => PaperReview) public papers;\n\n    bytes32[] public paperHashesOriginal; //Only the root paper hashes (the first ever submitted paper hashes)\n    bytes32[] public paperHashesTotal; //All paper hashes including the improved ones for the next review round\n\n    string[] public testStringArr = [\"Hello World\", \"Hello Planet\"];\n    string public testString = \"Hello World\";\n    bytes32 public testBytes = \"Test Bytes\";\n    string[] public testArray= [\"0xf77b889e6507e4f270e5ade94593d3da45e2197008292e058f30438c8e1abd55\",\"0x50f1b68c23f346ebd27e954d205188a188bbfb161f7dbd53fbc4be7ebe8126ed\"];\n\n    function getPaperReviewHistory(bytes32 paperHash) view public returns (address, string memory, bytes32, bytes32, bytes32[] memory, uint256[] memory, address[] memory, string[] memory, bytes32[] memory, uint256[] memory, int[] memory, int[] memory ){//, string memory, bytes32, bytes32) {//, bytes32, uint256, address, string memory, bytes32, uint256, int8, int8) {\n        bytes32 rootHash = getRootPaperHash(paperHash);\n        return (papers[rootHash].paperAuthorAddress, papers[rootHash].authorName, papers[rootHash].paperHash, papers[rootHash].parentPaperHash, papers[rootHash].paperHashHistory, papers[rootHash].paperTimestamps, papers[rootHash].reviewerAddresses, papers[rootHash].reviewerNames, papers[rootHash].reviewHashes, papers[rootHash].reviewerTimestamps, papers[rootHash].overallEvaluation, papers[rootHash].reviewerConfidence);//, papers[rootHash].parentPaperHash);\n    }\n\n    function getPaperStruct(bytes32 paperHash) view public returns (PaperReview memory) {\n      bytes32 rootHash = getRootPaperHash(paperHash);\n      return papers[rootHash];\n    }\n\n    function getTestArray() view public returns (string[] memory) {\n      return testArray;\n    }\n\n    function getTestString() view public returns (string memory) {\n        return testString;\n    }\n\n    function getTestBytes() view public returns (bytes32) {\n        return testBytes;\n    }\n\n    function getPaperHashesOriginal() view public returns (bytes32) {\n        return paperHashesOriginal[0];\n    }\n\n    function getPaperHashesTotal() view public returns (bytes32) {\n        return paperHashesTotal[0];\n    }\n\n    constructor() public {\n        owner = msg.sender;\n    }\n\n    function setPaper(address _paperAuthorAddress, string memory _authorName, bytes32 _paperHash) public { // \"0xFFcf8FDEE72ac11b5c542428B35EEF5769C409f0\", \"Jon Doe\", \"0xca978112ca1bbdcafac231b39a23dc4da786eff8147c4e72b9807785afee48bb\"\n        PaperReview storage paper = papers[_paperHash];\n        paper.paperAuthorAddress = _paperAuthorAddress;\n        paper.authorName = _authorName;\n        paper.paperHash = _paperHash;\n        paper.parentPaperHash = _paperHash;\n        paper.paperHashHistory.push(_paperHash);\n        paper.paperTimestamps.push(now);\n\n        paperHashesOriginal.push(_paperHash);\n        paperHashesTotal.push(_paperHash);\n    }\n\n     function updatePaper(bytes32 _oldPaperHash, bytes32 _newPaperHash) public {\n        require(address(msg.sender) == papers[_oldPaperHash].paperAuthorAddress);\n        PaperReview storage paper = papers[_newPaperHash];\n        paper.paperAuthorAddress = papers[_oldPaperHash].paperAuthorAddress;\n        paper.paperHash = _newPaperHash;\n        paper.parentPaperHash = _oldPaperHash;\n        papers[getRootPaperHash(_oldPaperHash)].paperHashHistory.push(_newPaperHash);\n        paper.paperTimestamps.push(now);\n\n        paperHashesTotal.push(_newPaperHash);\n    }\n\n    function getRootPaperHash(bytes32 _paperHash) public view returns (bytes32){\n        bool flag = true;\n        bytes32 rootHash = _paperHash;\n        while(flag) {\n            if(papers[rootHash].paperHash == papers[rootHash].parentPaperHash) {\n                flag = false;\n            } else {\n                rootHash = papers[rootHash].parentPaperHash;\n            }\n        }\n\n        return rootHash;\n\n    }\n\n    function setReview(bytes32 _paperHash, address _reviewerAddress, string memory _reviewerName, bytes32 _reviewHash, int _overallEvaluation, int _reviewerConfidence) public {\n        papers[_paperHash].reviewerAddresses.push(_reviewerAddress);\n        papers[_paperHash].reviewerNames.push(_reviewerName);\n        papers[_paperHash].reviewHashes.push(_reviewHash);\n        papers[_paperHash].reviewerTimestamps.push(now);\n        papers[_paperHash].overallEvaluation.push(_overallEvaluation);\n        papers[_paperHash].reviewerConfidence.push(_reviewerConfidence);\n    }\n\n    function countOriginalPapers() view public returns (uint) {\n        return paperHashesOriginal.length;\n    }\n\n    function countTotalPapers() view public returns (uint) {\n        return paperHashesTotal.length;\n    }\n\n    function getPaperHashesByAuthorWalletaddress(address _authurWalletAddress) view public returns (bytes32[] memory) {\n        bytes32[] memory tmpHashesArray = new bytes32[](getNrOfPapersPublishedByAuthorWalletaddress(_authurWalletAddress));\n        //delete tmpHashesArray;\n        //bytes32[] memory tmpHashesArray;\n        for (uint i=0; i<paperHashesTotal.length; i++) {\n            if(papers[paperHashesTotal[i]].paperAuthorAddress == _authurWalletAddress){\n                tmpHashesArray[i] = papers[paperHashesTotal[i]].paperHash;\n                //tmpHashesArray.push(papers[paperHashesTotal[i]].paperHash);\n            }\n        }\n        return tmpHashesArray;\n    }\n\n    function getNrOfPapersPublishedByAuthorWalletaddress(address _authurWalletAddress) view public returns (uint256 count) {  //Includes everything also updated papers\n        uint256 counter = 0;\n        for (uint i=0; i<paperHashesTotal.length; i++) {\n            if(papers[paperHashesTotal[i]].paperAuthorAddress == _authurWalletAddress){\n                counter ++;\n            }\n        }\n        return counter;\n    }\n\n    /*function destroyMe() public {\n        require(address(msg.sender) == owner);\n        selfdestruct(owner);\n    }*/\n\n}\n",
  "sourcePath": "/Users/lucahernandezacosta/PowerFolders/powerfolder/Uni-Sachen/Project_Master/mern-auth/contracts/Backup.sol",
  "compiler": {
    "name": "solc",
    "version": "0.5.1+commit.c8a2cb62.Emscripten.clang"
  },
  "schemaVersion": "3.0.9",
  "updatedAt": "2019-09-19T01:38:37.303Z",
  "devdoc": {
    "methods": {}
  },
  "userdoc": {
    "methods": {}
  }
}